:020000040800F2
:1000000000500020955A0008D9530008DB5300081F
:1000100000000000000000000000000000000000E0
:10002000000000000000000000000000DD53000898
:100030000000000000000000DF530008E15300084A
:10004000E55A0008E55A0008E9530008E55A000897
:10005000E55A0008F9530008E55A00080954000859
:10006000E55A0008E55A0008E55A0008E55A000874
:10007000E55A0008E55A0008E55A0008E55A000864
:10008000E55A0008E55A0008E55A0008000000009B
:10009000E55A0008E55A0008E55A0008E55A000844
:1000A000E55A0008E55A0008E55A0008E55A000834
:1000B000E55A0008E55A000800000000E55A00086B
:1000C00010B5064C2378002B07D1054B002B02D02E
:1000D000044800E000BF0123237010BD400200204F
:1000E00000000000A09C0108044B10B5002B03D0B9
:1000F0000349044800E000BF10BDC04600000000F6
:1001000044020020A09C01080023C25C0133002AA5
:10011000FBD1581E70470000002243088B4274D365
:1001200003098B425FD3030A8B4244D3030B8B42F8
:1001300028D3030C8B420DD3FF22090212BA030C01
:100140008B4202D31212090265D0030B8B4219D3E2
:1001500000E0090AC30B8B4201D3CB03C01A524102
:10016000830B8B4201D38B03C01A5241430B8B424A
:1001700001D34B03C01A5241030B8B4201D30B0333
:10018000C01A5241C30A8B4201D3CB02C01A52415A
:10019000830A8B4201D38B02C01A5241430A8B421D
:1001A00001D34B02C01A5241030A8B4201D30B0206
:1001B000C01A5241CDD2C3098B4201D3CB01C01A20
:1001C000524183098B4201D38B01C01A524143092A
:1001D0008B4201D34B01C01A524103098B4201D318
:1001E0000B01C01A5241C3088B4201D3CB00C01A85
:1001F000524183088B4201D38B00C01A52414308FD
:100200008B4201D34B00C01A5241411A00D2014621
:10021000524110467047FFE701B5002000F0F0F8AA
:1002200002BDC0460029F7D076E7704703460B436E
:100230007FD4002243088B4274D303098B425FD3DF
:10024000030A8B4244D3030B8B4228D3030C8B420B
:100250000DD3FF22090212BA030C8B4202D31212F1
:10026000090265D0030B8B4219D300E0090AC30BC6
:100270008B4201D3CB03C01A5241830B8B4201D373
:100280008B03C01A5241430B8B4201D34B03C01A5C
:100290005241030B8B4201D30B03C01A5241C30AD4
:1002A0008B4201D3CB02C01A5241830A8B4201D345
:1002B0008B02C01A5241430A8B4201D34B02C01A2F
:1002C0005241030A8B4201D30B02C01A5241CDD2D4
:1002D000C3098B4201D3CB01C01A524183098B421F
:1002E00001D38B01C01A524143098B4201D34B0108
:1002F000C01A524103098B4201D30B01C01A52416B
:10030000C3088B4201D3CB00C01A524183088B42F1
:1003100001D38B00C01A524143088B4201D34B00DA
:10032000C01A5241411A00D201465241104670474C
:100330005DE0CA0F00D04942031000D34042534051
:1003400000229C4603098B422DD3030A8B4212D311
:10035000FC22890112BA030A8B420CD38901921143
:100360008B4208D3890192118B4204D389013AD080
:10037000921100E08909C3098B4201D3CB01C01A55
:10038000524183098B4201D38B01C01A5241430968
:100390008B4201D34B01C01A524103098B4201D356
:1003A0000B01C01A5241C3088B4201D3CB00C01AC3
:1003B000524183088B4201D38B00C01A5241D9D2DB
:1003C00043088B4201D34B00C01A5241411A00D25C
:1003D0000146634652415B10104601D34042002B58
:1003E00000D54942704763465B1000D3404201B5D7
:1003F000002000F005F802BD0029F8D016E770478C
:100400007047C0468446101C62468C46191C6346E1
:1004100000E0C0461FB501F0A9FB002801D400216F
:10042000C8421FBD10B501F001FB4042013010BDB4
:1004300010B501F09BFB002801DB002010BD01205E
:1004400010BDC04610B501F091FB002801DD002071
:1004500010BD012010BDC04610B501F023FB0028DF
:1004600001DC002010BD012010BDC04610B501F018
:1004700019FB002801DA002010BD012010BDC04684
:100480008446081C6146FFE71FB500F013FA0028F8
:1004900001D40021C8421FBD10B500F095F94042BB
:1004A000013010BD10B500F005FA002801DB002076
:1004B00010BD012010BDC04610B500F0FBF90028AA
:1004C00001DD002010BD012010BDC04610B500F0B8
:1004D000A3F9002801DC002010BD012010BDC0469A
:1004E00010B500F099F9002801DA002010BD0120B4
:1004F00010BDC046002B15D1002A13D1002906DB00
:1005000001DC002806D00020C043410802E0802121
:100510000906002007B4024801A14018029003BD5B
:10052000E1FEFFFF03B4684601B5029800F030F920
:10053000019B9E4602B00CBC7047C046002B11D1F7
:10054000002A0FD1002900D1002802D00021C94380
:10055000081C07B4024802A14018029003BDC0461F
:10056000A1FEFFFF03B4684601B5029800F04EF803
:10057000019B9E4602B00CBC7047C046F0B5CE460B
:10058000474615042D0C2E0080B50704140C3F0CB3
:100590009946030C7E435D43674363437F19340CE4
:1005A000E4199C46A54203D980235B029846C444C3
:1005B0004B4643435143250C36046544360C240412
:1005C000A4195B19591820000CBC90469946F0BD3F
:1005D00070B500220C4B04000D00FFF747FF002808
:1005E00004D12000290002F0E3F870BD064B002280
:1005F0002000290001F094FD02F0DAF880231B06A8
:100600009C466044F1E7C0460000E041F0B54F462B
:100610004646D646C0B5040082B00D0091469846C5
:100620008B422FD82CD04146484602F0D3F92900FE
:100630000600200002F0CEF9331A9C46203B9A4671
:1006400000D576E04B46524693401F004B4662462B
:1006500093401E00AF4228D825D05346A41BBD416D
:10066000002B00DA7BE0002200230092019301239B
:10067000524693400193012362469340009318E051
:100680008242D0D900220023009201930A9B002BC2
:1006900001D01C605D600098019902B01CBC9046BE
:1006A0009946A246F0BDA342D7D90022002300926A
:1006B00001936346002BE9D0FB0798464146720838
:1006C0000A437B0866460EE0AB4201D1A2420CD839
:1006D000A41A9D41012024196D410021013E2418D6
:1006E0004D41002E06D0AB42EED9013E24196D419A
:1006F000002EF8D100980199534600196941002B4A
:1007000023DB2B005246D3402A006446E2401C0003
:1007100053461500002B2DDB26005746BE40330004
:1007200026006746BE403200801A99410090019130
:10073000ACE7624620239B1A4A46DA406146130022
:1007400042468A4017001F4380E7624620239B1AD7
:100750002A0066469A402300F3401343D4E76246DA
:10076000202300219B1A0022009101920122DA40ED
:10077000019280E72023624626009B1ADE402F006C
:10078000B0466646B74046463B003343C8E7C046DE
:10079000F0B583B016001F000090019102F026F919
:1007A00004000D0002000B0030003900FFF7E6FEE8
:1007B000009A019B121A8B41089920000A604B6035
:1007C000290003B0F0BDC04670B542004E024C0097
:1007D00045026D0A120EC30F760A240EC90FFF2AB6
:1007E0000FD0FF2C11D00120A24200D070BDB54225
:1007F000FCD18B420DD0002AF8D12800451EA8411B
:10080000F4E70120002DF1D1EBE70120002EEDD11E
:10081000E9E70020EAE7C04670B54A004E0245020B
:1008200044006D0A240EC30F760A120EC90FFF2C66
:1008300015D0FF2A0ED0002C15D1002A01D1002E90
:100840001CD0002D14D08B4227D00220013B184031
:10085000013870BD002EEED002204042F9E7002D95
:10086000FAD1FF2A0ED0002A0ED1002EEDD00BE0D7
:1008700001230139994308000130EAE70020002DE7
:10088000E7D0E2E7002EE7D18B42DED1944205DDCE
:100890000221581E08400138DBE70024A24204DC94
:1008A000B542D2D80020B542D3D2581E0123984376
:1008B0000130CEE730B5420044024D02C30F48007C
:1008C000640A120E6D0A000EC90FFF2A12D0FF280B
:1008D0000CD0002A12D1002819D1002D17D1002CDC
:1008E0002BD00220013B1840013826E0002DF0D02B
:1008F000022022E0002CFBD1FF281FD000281FD1AE
:10090000002D1DD10220013B1840013815E0002CBC
:100910000ED08B42E5D10022904204DCAC42E0D8FC
:100920000020AC4209D2581E01239843013004E054
:100930000123013999430800013030BD002DD7D182
:100940008B42CED18242E7DD0221581E0840013899
:10095000F3E7C046F8B54746CE464400C20F80B51F
:1009600047024802400A8446664648007F0A240E31
:10097000F60025009046FB00000EC90FB146FF2887
:1009800000D185E001267140261A914257D0002EF1
:1009900043DD002800D07FE04946002900D1AAE0CD
:1009A000013E002E00D0F7E05B1A5A0100D48BE024
:1009B0009B019C09200001F0EFFF0538844085422F
:1009C00000DDD3E0451B230020200135EB40451B13
:1009D000AC40621E94412343072400251C400122A1
:1009E00041460A40002C04D00F211940042900D0B0
:1009F0000433590100D480E00135ECB2FF2D00D062
:100A0000A3E0FF2400235B02E405580AD207204339
:100A100010430CBC90469946F8BD002E74D1601C62
:100A2000C0B2012800DCA7E04A469C1A620100D54A
:100A3000B6E0002CBED1002200240023E3E7002E04
:100A400000DC85E0002846D0FF2C49D080224846B3
:100A5000D2041043814601221B2E09DC20204C4683
:100A6000801B84404A462000F240441EA0410243BD
:100A70009B185A0128D50135FF2D00D1A8E001228D
:100A8000072494491A405B080B4013431C40A6E717
:100A9000002E00D078E775E7FF2C54D0802249461D
:100AA000D2041143894601221B2E09DC202148462D
:100AB000891B88404A460100F240481E81410A4392
:100AC0009B1A5A0100D573E7012241460A40590793
:100AD00000D089E711E04846002858D1FF2C0CD1FE
:100AE000DB08002B00D18CE78020C00303435B02AE
:100AF0005B0AFF2487E7FF2C25D0DB08FF2DF0D011
:100B00005B025B0AECB27EE7002C4DD0FF2818D0C8
:100B10008024E404724223431B2A00DDC4E01C004D
:100B20002025D440AA1A93405A1E934123434A4693
:100B30000500D31A884638E7721CF8D0F243FF2824
:100B4000EAD10A004B46FF25D7E79B015B0A5AE72B
:100B5000002E41D1651CE9B2012945DDFF2D00D1F0
:100B60004FE707244B445B081C4038E707225A4BE9
:100B70002D1A2340144032E7002C1DD1002B7AD1CE
:100B80004B46002B00D191E00A000025B5E7013E5D
:100B9000002E19D14B446CE7FF2C84D1FF25ACE724
:100BA0004A468846D41A05E7002BC5D10A00FF281B
:100BB000C8D005004B46A0E7002B49D14B46002B7F
:100BC00077D00A00FF2598E7FF2C00D043E787E79E
:100BD0000A00FF24002316E7002C15D1002B57D163
:100BE000FF28E6D14B467BE7002C20D1002B57D0C5
:100BF0004946002953D04B445A0168D50724364A48
:100C00001C4001251340EAE6FF28EBD08022D204E5
:100C1000764213431B2E53DC2025AD1B1A00AB403C
:100C2000F2405C1EA34113434B44050021E7002B17
:100C3000D8D04946002900D152E78021C9030F428C
:100C400000D14DE76046084200D049E74B4647E7F0
:100C50004846FF25002800D14FE78022D2031742E3
:100C600004D06046104201D14B46884601224146DD
:100C7000FF250A4041E7484600281FD01A1A5001B4
:100C800020D54A460724D31A1C4088460025A6E6EC
:100C9000741CC9D0F643FF28BCD14B4620E79946C7
:100CA0004B460025DB082BE7012340E70022002309
:100CB000A9E680230022DB03FF24A4E600251CE72D
:100CC0000123B1E7002AF1D013000025FCE600253E
:100CD000FAE6C046FFFFFF7DFFFFFFFB70B500286F
:100CE0003DD0C317C5185D40C40F280001F054FE65
:100CF0009E22121A962A07DCD2B2082833DD083861
:100D000085406802400A23E0992A0BDD052329006B
:100D10001B1AD94003001B339D402B005D1EAB41C5
:100D200019430D00052801DD431F9D402B000F498D
:100D30000B406E0709D00F263540042D05D0043333
:100D40005D0102D59F220B40121A9B01580AD2B2B4
:100D50004002D205400AE4071043204370BD00243E
:100D600000220020F4E76802400AF1E7FFFFFFFBE2
:100D700070B5041E34D001F00FFE9E22121A962A7E
:100D800007DCD2B208282EDD083884406002400A11
:100D900021E0992A09DD030021001B3399404B1EF5
:100DA000994105231B1ADC400C43052801DD431F34
:100DB0009C4023000D490B40650709D00F252C40AE
:100DC000042C05D004335C0102D59F220B40121A7B
:100DD0009B01580AD2B24002D205400A104370BDAE
:100DE00000220020F7E76002400AF4E7FFFFFFFB64
:100DF000F0B54F464646D6460C000903C0B5490A31
:100E0000470F5E0039431F03DB0F9C4665007B0ADA
:100E1000570F1F436D0DE40F760DA146C000B84675
:100E2000D200AB1B64457BD0002B5FDD002E00D0D1
:100E3000A4E03E00164300D112E15E1E002E00D059
:100E40009EE1871A4346B84280410125C91A4042B3
:100E5000091A0B0200D431E149024E0A002E00D1DA
:100E60006EE1300001F098FD0300083B1F2B00DD10
:100E700061E120223900D21A9E40D1409F400E43AA
:100E80009D4200DD51E15D1B6B1C1F2B00DD7CE1F1
:100E90002021C91A3D0030008F408840DD40791E76
:100EA0008F41310007222843D940002507433A40AB
:100EB000002A09D00F233B40042B05D03B1DBB4229
:100EC000BF417F42C9191F000B0200D426E26A1CF1
:100ED000C64B55056D0D9A4200D106E1C44AFF0884
:100EE0000A40530752023B43120B8EE0002B00D006
:100EF000B8E06B1C5B055B0D012B00DC30E1871A51
:100F00004346B842B641CB1A76429E1B330200D507
:100F10004CE13B003343A1D100220024002570E0C6
:100F2000002B00DCE5E0002E00D183E0AF4EB5429F
:100F300060D0802636043743B846382B00DC3EE1CB
:100F4000434613431F007A1E97413F188742804152
:100F5000404209180B0200D4B0E0A44B01359D4279
:100F600000D1C3E0A24A7B080A4001210F401F4381
:100F70005108D30707221F433A4099E79B4EB542D9
:100F800038D0802636043743B846382B00DDDCE005
:100F90001F2B00DC30E11E004746203EF740BC46D8
:100FA000202B04D04026F31A46469E4032431700B9
:100FB00063467A1E97411F43CCE0002B00D104E228
:100FC0004346134300D159E14B07C008184380231F
:100FD000C9081B03194208D04546ED081D4204D13B
:100FE0004346D008590708432900420FC9007F4DE6
:100FF0001143C0004B07CA087C49C00803438D4217
:1010000068D012036D05120B6D0D0021120318003C
:10101000130B0A0D12051A43764B2D0513402B4373
:101020005B00E4075B08234319001CBC904699460B
:10103000A246F0BD3E00164312D05E1E002E00D028
:1010400000E1871887428041414440420918012548
:101050000B0233D5022585E7644633004146100074
:101060001D00C7E7002D00D0DAE00C000443F3D0E8
:101070005C1C00D19FE15D4CA64200D12FE1DB4317
:10108000382B00DD66E11F2B00DD83E12024050005
:10109000E41A0F00DD40D940A0404346A7405B1A48
:1010A000441EA04198462F433843171ABA42924132
:1010B00043465242991A64463500CAE607223A402E
:1010C000002A00D0F6E64B07CA084849FF083B4310
:1010D0008D4296D11900114300D19EE18021090370
:1010E0000A431203120B414D8FE715000022002323
:1010F0008BE7002B00D0C7E06B1C5F057F0D012F35
:1011000000DCF1E0394DAB4200D1B9E085180A00AE
:10111000854289414244494251180722CF076D0850
:101120002F4349083A401D00C2E607223049ED1A14
:1011300031403A40BCE63E002838864000279FE612
:10114000380001F029FC20308EE6434613431F008F
:101150007A1E9741C71BB84280414042091A78E67F
:101160000E003B0006431343002D61D1002E00D03A
:10117000F4E0002B00D11BE164463900100039E790
:101180001A4FBB427AD03300FFE630001F3DE840E3
:10119000202B03D04021CB1A9E4037437B1E9F411A
:1011A000072207433A400021002589E7171A4346E2
:1011B000BA42B641591A76428E1B64464EE61F2B40
:1011C00000DDADE020264746F61AB740B9461700C5
:1011D000B246DF404E463E4337005646B240561EAA
:1011E000B24117434246DA408918AEE6FF070000D5
:1011F000FFFF7FFFFFFF0F8020264746F61AB7400C
:10120000B9461700B246DF404E463E4337005646C9
:10121000B240561EB24117434246DA40891A99E756
:101220007F4CA6425BD0802424045B42214327E705
:10123000002E0CD1002B00D1CBE064463900100009
:10124000774DD7E6764FBB4218D0330075E6002BBA
:1012500014D04B07C00818438023C9081B03194248
:1012600007D0FC081C4204D17907D0080843E146A6
:1012700021004C46420FC9001143C000684DB9E639
:101280001D0000220023C0E6002D5BD10D000543A8
:1012900000D1E2E65D1C00D1B0E0614DAE421FD04E
:1012A000DB43382B71DC1F2B00DD96E020250F007F
:1012B000ED1AAF40B9460700AA46DF404D463D4310
:1012C0002F005546A840D940451EA84188440743F1
:1012D000BF18974292415142414435003AE6644674
:1012E00035004146100085E60B000343002D00D079
:1012F00063E6002BF5D04346134300D17AE6871806
:101300008742804107224144404209183A400B027B
:1013100000D4D5E6434B01351940C9E5380069E6EC
:101320001E004746203EF740BC46202B04D04026F6
:10133000F31A46469E403243170063467A1E974191
:101340001F4302E6364DAE42CAD080252D045B42D3
:101350002943A6E70843411E8841A6E6002B00D199
:1013600048E6871A4346B842B641CB1A76429E1BDE
:1013700033024BD5171A4346BA429241591A524288
:10138000891A072264463A4092E501430F00791E0C
:101390008F419DE71C000F00203CE740202B03D02D
:1013A0004024E31A99400843411E884138437CE6B3
:1013B0000022002425E6171A4346BA429241591AE0
:1013C0005242891A6446350043E541461000144DE7
:1013D00010E680220024120380E61D000F00203D4D
:1013E000EF40BC46202B03D04025EB1A9940084320
:1013F00007006346781E87411F4369E787189742B5
:101400009B4141445B42C9183500A3E53B0033438F
:10141000CED0072231003A4052E600231A00F4E50C
:10142000FF070000FFFF7FFFF0B55746DE464E4640
:101430004546E0B5834607000E03480085B0924656
:101440001C00360B400DCD0F002800D19DE0954BC0
:10145000984239D08023F6001B041E43924A7B0F2A
:1014600033439946944603006344009300230026C7
:10147000FF00029323031B0B98466300E40F5246C0
:101480005B0D019400D1B3E086498B4200D19EE010
:101490004246D100802212040A435146490F1143AB
:1014A0008B46814952468C4600996344CB1A0021F1
:1014B000D20000932B0063409A460F2E00D905E11D
:1014C0007A4BB6009B599F465B463343994600D002
:1014D000B8E002230826002700900293CAE7CB4613
:1014E0003A0002990195019B9A46022927D00329C7
:1014F00000D180E2012944D06D49009B8C466344B1
:101500001C00002C38DD530700D013E2D2085B46E4
:10151000DB0109D55946674B19408B468021C9002C
:101520008C46009B63441C00634B9C4207DC5B467B
:1015300064055F075B0217431B0B620D02E000238B
:101540000027584A00211B031C0B0B0D1B052343CE
:1015500014055A4A380013401C4353466400DB0705
:1015600064081C43210005B03CBC90469946A24645
:10157000AB46F0BD0122524201231B1B382B00DC7D
:10158000ADE1002200230027DCE75B4633439946A8
:101590005ED0002E00D18AE1300001F0FDF9030099
:1015A0000B3B1C2B00DD7BE11D22D31A5A460100A8
:1015B000DA4008398E4013005F46334399468F4026
:1015C0003F4B00261B1A00930023029352E741462B
:1015D00053460B433B499B468C46009B6344009318
:1015E0005B46002B3BD1022300221E43022161E710
:1015F000434613439B4637D04346002B00D162E15C
:10160000404601F0C9F903000B3B1C2B00DD53E100
:1016100002004146083A914088461D21CB1A5146A6
:10162000D9400B0041460B439B46534693401A005A
:10163000009B25499C46604403008C46634400930C
:10164000002137E70323B14600900C26029311E7EF
:101650000023009301330426002702930AE70323A3
:10166000C3461E43032125E701331E430022012107
:1016700020E700239A46802300271B03094A61E7DD
:10168000802349461B03194200D1E2E05946194222
:1016900000D0DEE00B431B0317001B0BA246014AE0
:1016A00050E7C046FF07000001FCFFFFCC9D01088A
:1016B000FF030000FFFFFFFEFE070000FFFF0F809B
:1016C0000DFCFFFF01F8FFFFF3030000D94500D92F
:1016D000CBE000D1C6E03C0048460027009B013B20
:1016E00000935B46160E1B021E43130298463304FA
:1016F0001B0C9946310C0191FEF794FD4A4642437A
:101700000B04210C050019438A4207D98919013DB0
:101710008E4203D88A4201D9851E8919881A0199F7
:10172000FEF780FD09048C464A4621046446424384
:10173000090C030021438A4204D98919013B8E42D6
:1017400000D8F1E02D041D43AB464346891A4246BA
:10175000280C12041D0C5B46140C22001B041B0CED
:101760005A4303946B434443029568431B19150C79
:10177000EB189C4203D980246402A44660441C0CEC
:1017800015041B042D0C20185D19814277D373D0EA
:101790000C1AA24A7D1BAF42BF419446009B7F4278
:1017A0006344E01B1C00864200D1DBE00199FEF798
:1017B00039FD4A4642430B04290C070019438A426B
:1017C00007D98919013F8E4203D88A4201D9871E61
:1017D0008919881A0199FEF725FD09044A468946A8
:1017E00029044D464243090C030029438A4207D984
:1017F0008919013B8E4203D88A4201D9831E891977
:101800003F04891A3A00039F1A43380013041B0C43
:10181000584381460298150C6F434343454348465D
:10182000000C8446DB1963449F4203D980204002A8
:101830008446654448461F0C00041B04000C7D19B7
:101840001818A94200D284E000D17FE001231A4396
:1018500057E680234A461B0313431B031B0BAA4670
:101860006F4A6FE6BA4200D935E74B46DC075808A5
:101870007B081C43FF0734E70024AF4289D247446A
:101880004745A4415B466442A4196418013BA64243
:101890001ED2A0426DD800D1B6E0241A9B4678E74C
:1018A00003005A46283B9A400027914688E658464E
:1018B00001F072F8203072E603005246283B9A404D
:1018C00093460022B4E6504601F066F820309AE6CE
:1018D000A642E2D1B845DCD9341A9B4659E71F2B02
:1018E00065DC504C0099A4465C46614408008C407D
:1018F00011008240D940501E82410C4314435A4685
:10190000DA401300620709D00F222240042A05D0D2
:101910002200141D9442894149425B181A0262D583
:101920000122002300270DE68A4200D80AE7831E21
:10193000891907E70F231340042B00D1E6E5171D93
:101940009742924153429B44FA08E0E5002800D1B7
:10195000D7E57118531EB14227D3A94215D358D0E9
:101960001A0073E7002B00DC04E6012300229B44ED
:10197000CDE502234744474589415B429C464942A5
:1019800089190C19E344241A03E743465F004745CD
:101990009B41B8465B429E19023A8919A94200D080
:1019A00054E7404500D051E7ABE51A00F6E71F21A8
:1019B0005F4649420C1BE740202B07D01A49009B89
:1019C0008C46634418005B4683401A43501E824194
:1019D0003A4307270023174009D00F210023114065
:1019E0001400042995D122005F075B021B0BD2086B
:1019F00017430022A6E5802359461B030B431B0314
:101A000017001B0B064A9DE5BD42B2D89B46002439
:101A1000BFE68045B9D31A00C3E7C046FF03000004
:101A2000FF0700001E0400003E040000F0B54F4612
:101A30004646D6468446C0B58046194E18030F0365
:101A40004D00000B5C0082463F0B6D0DC90F9146A7
:101A5000640DDB0F0120B5420AD0B44203D0A54289
:101A600001D157450CD01CBC90469946A246F0BD0A
:101A700066463E43F7D1AC42F5D154461443F2D109
:101A80000120C845EFD1994207D0002DEBD1634624
:101A90001F433800471EB841E5E70020E3E7C04692
:101AA000FF070000F0B54F464646D6464D00C0B58C
:101AB0000E03C90F8A462C491F035C008046360B73
:101AC0006D0D91463F0B640DDB0F8D421ED08C4295
:101AD00016D0002D1ED130438446002C01D13A434C
:101AE00023D06246002A1AD09A4529D051460220B6
:101AF0000139084001381CBC90469946A246F0BD09
:101B000039001143E5D002204042F4E73043FAD1D6
:101B1000AC420FD0002C0FD13A43E7D00CE00122A9
:101B2000013B934318000130E5E763460020002B9A
:101B3000E1D0DBE73A43E6D19A45D7D1A542D5DCDF
:101B4000A54205DBBE42D1D808D00020BE42D2D289
:101B500050460123013898430130CCE7C845C5D829
:101B60000020C845F4D3C6E7FF070000F0B54F4694
:101B70004646D6464D00C0B50E03C90F8A462E49CB
:101B80001F035C008046360B6D0D91463F0B640DC4
:101B9000DB0F8D4218D08C4211D0002D18D130436C
:101BA0008446002C1ED13A431CD163460020002BF2
:101BB00030D0514602200139084001382AE039006E
:101BC0001143EAD0022025E03043FBD1AC4226D0BD
:101BD000002C26D13A4324D1514602200139084035
:101BE000013817E06246002A0FD09A45E1D1A5429C
:101BF00005DBBE42DDD819D00020BE420AD25046D5
:101C0000012301389843013004E00122013B934352
:101C1000180001301CBC90469946A246F0BD3A43DC
:101C2000D0D19A45C5D1A542C3DCE0E7C845C0D8AC
:101C30000020C845E3D3EDE7FF070000F0B55746A5
:101C4000DE464E464546E0B5834606000F03480093
:101C500087B092461D003F0B400DCC0F002800D1ED
:101C60006FE0DE4B984238D08023FF001B041F43F7
:101C7000730F3B430193DA4B0027994600239B46A1
:101C8000F60081442B0369001B0B52469846490D10
:101C9000ED0F002900D185E0D04B994200D173E0CF
:101CA0004346DA0080231B0413435246CC48520FAC
:101CB00084461343524600206144D20089442100E7
:101CC000694000918C46012149448A460F2F00D972
:101CD00090E0C449BF00CF59BF465B463B430193E8
:101CE00000D06AE102230827002681469B46C9E707
:101CF00032005846019B61460091022800D175E0F0
:101D0000032800D1FEE1012800D02CE100230027A8
:101D1000002600253F032A0D3F0BB34812053A4326
:101D200002401B051343009A5B00D1075B080B437D
:101D30003000190007B03CBC90469946A246AB461D
:101D4000F0BD5B463B43019300D12FE1002F00D152
:101D5000A5E1380000F020FE03000B3B1C2B00DD4A
:101D600096E11D22D31A5A460100DA405E46083930
:101D70008F4013008E403B4301939C4B00271B1A5E
:101D8000994600239B467DE7414653460B439349C2
:101D90008C46E144002B00D01AE1022202201743B6
:101DA00000228CE7134300D10DE14346002B00D104
:101DB00081E1404600F0F0FD02000B3A1C2A00DDF4
:101DC00072E10100434608398B4098461D239A1A58
:101DD0005346D3401A004346134352468A4049466D
:101DE000081A824989468144002068E77B4B002716
:101DF00000268EE7140C1204120C1100370C360466
:101E0000350C794328008C462E006043604483469D
:101E100056432100300C8046584679434044029195
:101E2000844506D98846802149028C46E0444146D3
:101E300002913604010C360C00048B4681191E0CED
:101E40001B041B0C0391190079438C462800754331
:101E50006544A8465843050C45447743A94203D935
:101E6000802149028C466744290C8C4639000004C5
:101E7000000C2D042D186144AB4405915946049182
:101E800001990F043F0C080C39005143424390461E
:101E900002008C46090C8B4662437C4344445C44FC
:101EA000A04503D98021490288464244210C884636
:101EB00061460904090C8C46390059434343704379
:101EC0007E430F0CF6182404BE19644442448C4629
:101ED000B34203D980235B0298464044029B61468B
:101EE0009846049B370443449B46AB45AD416B4247
:101EF0000D0405992D0C8C467F196744FD18A846E2
:101F00005D462D19A542A44193466442A446C344AC
:101F1000DC448F42BF4198459B4193459241A44583
:101F2000A4415B427F421F43360C52426442BF19B8
:101F30002243BF18624638184302D20D0399134357
:101F40006A020A43501E82416146ED0D2A434E0249
:101F50003243D90100D4B3E0012650083240024395
:101F6000DE0732435B08224C5444002C62DD5107EB
:101F700009D00F201040042805D0101D9042924136
:101F800052429B180200D90104D580241948E4006C
:101F9000034054441848844200DD27E75E075B0293
:101FA000D2081F0B630516435B0DB2E6002399466A
:101FB0000133042700269B4664E6032301978146EC
:101FC0000C279B465EE6012201201743002276E69D
:101FD000032303201F43434671E6C046FF0700006A
:101FE00001FCFFFF0C9E0108FFFF0F800DFCFFFFAF
:101FF000FF030000FFFFFFFEFE0700000023802715
:1020000000933F030026434B83E6019B3200A44626
:10201000584670E6AC466EE6802701993F03394288
:102020002DD03B422BD11F433F033F0B00951600A1
:10203000384B6EE601252D1B382D00DD66E61F2D81
:1020400040DC35481C005044160082408440EE407D
:10205000501E824134431443EB40620709D00F22E3
:102060002240042A05D02200141D9442804140429F
:102070001B181A023ED501230027002649E68027B7
:10208000019B3F031F433F033F0B0094214B40E65E
:1020900003005A46283B9A40002601926DE65846B6
:1020A00000F07AFC203057E603005246283B9A4065
:1020B0001300002293E6504600F06EFC20307BE6D1
:1020C000CA4650E71F201E004042041BE640202D58
:1020D00003D0124C5444A3401A43501E8241324351
:1020E00007260027164009D00F20002310401400B7
:1020F0000428B9D122005E075B021F0BD2081643E9
:10210000002306E680273F031F433F033F0B1600D3
:10211000004BFEE5FF0700001E0400003E04000027
:10212000F8B557464E464546DE460C000903E0B575
:10213000490A460F5F0031431E03DB0F760A9B46B8
:10214000530F3343C84E6500C000E40FD2006D0D3D
:10215000A24681467F0D9C469046B74200D1B9E029
:102160005B46012673409B46EE1BA34500D183E0EE
:10217000002E63DD002F00D0B1E06346134300D191
:1021800023E1731E002B00D0BAE1861A6346B042E9
:1021900080410125C91A4042091A0B0200D447E1C7
:1021A00049024B0A98464346002B00D189E140463C
:1021B00000F0F2FB0300083B1F2B00DD7CE1202236
:1021C0003000D21A4146D040994002009E400A4356
:1021D0009D4200DD6AE15D1B6B1C1F2B00DD94E15D
:1021E000202110003500C91A8E40DA408840DD40B9
:1021F000711E8E41110007222843002506433240FC
:10220000002A09D00F233340042B05D0331DB342DD
:10221000B641764289191E000B0200D43DE26A1CC9
:10222000914B55056D0D9A4200D119E18F4AF60880
:102230000A40570752023743120B9BE0002E00D092
:10224000C5E06E1C7605760D012E00DC48E1674680
:10225000861ACB1BB042BF417F42B8461F0043469F
:10226000FF1A3B00B8461B0200D55FE137439AD105
:1022700000220024002579E0002E00DCFAE0002F87
:1022800000D18DE0784B9D4267D0802367461B04C8
:102290001F43BC46382E00DC52E1634613435A1EEE
:1022A00093411E1886428041404209180B0200D417
:1022B000BEE06D4B01359D4200D1D2E06B4A730800
:1022C0000A4001210E401E435108D30707221E4336
:1022D000324095E71E00164300D045E740E7624BC9
:1022E0009D423AD0802367461B041F43BC46382ECC
:1022F00000DDEBE01F2E00DC3AE133006746203BB7
:10230000DF403B00202E05D04027BF1B6646BE4065
:10231000324390464646721E96413343DAE0002B24
:1023200000D114E26346134300D168E180234E07D5
:10233000C008C9081B030643194208D06046C008FC
:10234000184204D163460100D2085E071643F30029
:102350009946C900720F444D11434B46DE08424B6B
:102360004F073743CA089D4200D16EE012036D0546
:10237000120B6D0D00211203130B0A0D12051A43E7
:102380003B4B2D0513402B435B00E4075B082343C5
:10239000380019003CBC90469946A246AB46F8BDB1
:1023A0006346134311D0731E002B00D007E186183B
:1023B0008642804161444042091801250B0237D50D
:1023C00002257BE73E00614691463500C5E75C4645
:1023D000002D00D0E1E00B000343F3D0731C00D1CB
:1023E000ACE1214B9F4200D13AE1F343382B00DDB1
:1023F0006FE11F2B00DD8CE120250E00ED1AAE40B1
:10240000B0460600AA46DE40454635432E005546F6
:10241000D940A8406346451EA8415B1A9C463043FC
:10242000161AB242924163465242991A3D00B4E6EE
:1024300007223240002A00D0E4E60B4BF6084F0793
:102440003743CA089D4200D090E73B00134300D1B8
:10245000A6E180231B031A431203120B024D89E7E6
:1024600015000022002785E7FF070000FFFF7FFF20
:10247000FFFF0F80002E00D0C7E06B1C5E05760DBD
:10248000012E00DCF0E0C84DAB4200D1B9E0851868
:102490000A00854289416244494251180722CE0709
:1024A0006D082E43490832401D00A9E6BF49ED1AC8
:1024B000114007223240A3E632002838824000262D
:1024C00086E6300000F068FA203073E66346134376
:1024D0005A1E9341C61AB04280414042091A5CE636
:1024E0000E00674606431743002D5ED1002E00D034
:1024F000F3E0002F00D11EE15C46614691462CE7D7
:10250000A94FBE427BD01E00F1E610001F3DE840FF
:10251000202B03D04021CB1A9A401643731E9E41B4
:102520000722064332400021002583E7161A63463E
:10253000B2428041591A40420B1A98465C4632E634
:102540001F2E00DDABE02027BB1B9A466346574693
:10255000BB40994613004F46F3401F433B0057468C
:10256000BA40571EBA4113436246F240891898E6B2
:102570002027BB1B9A4663465746BB40994613002B
:102580004F46F3401F433B005746BA40571EBA41DF
:1025900013436246F240891A9CE7834B9F425FD007
:1025A00080252D047342294320E7002E0CD1002FF3
:1025B00000D1D0E05C46614691467B4DCDE67A4F36
:1025C000BE421CD01E0065E6002F18D0C0084E0782
:1025D00006438020C9080003014208D06346DC0896
:1025E000044204D12100DA46D2085E071643F30004
:1025F000994601245346C900720F11431C406A4D8D
:10260000ABE61D0000220027B4E6002D59D10B00D7
:10261000034300D1D6E6731C00D1B2E0624B9F4267
:102620001ED0F343382B6FDC1F2B00DD97E02025F5
:102630000E00ED1AAE40B0460600AA46DE40454602
:1026400035432E005546A840D940451EA8418C442C
:102650000643B61896429241514261443D0025E638
:102660003D006146914678E60B000343002D00D003
:1026700055E6002BF5D06346134300D16DE686186E
:102680008642804161444042091800220B0200D476
:10269000D0E6464B01351940B2E5B1465DE6330060
:1026A0006746203BDF403B00202E05D04027BF1B64
:1026B0006646BE40324390464646721E96413343BC
:1026C000EFE5394B9F42CBD080252D04734229433F
:1026D000A8E70843411E8841A2E6002F00D13CE64E
:1026E0006346861ACF1AB0429B415B42FB1A98465A
:1026F0001B024ED5161A6346B2429241591A5242F3
:10270000891A5C4600227BE501430E00711E8E4152
:102710009FE71D000E00203DEE40B046202B04D068
:102720004025EB1A99400843814648464346411EDE
:102730008841184374E60022002417E6161A6346FF
:10274000B2429241591A5242891A3D0025E561462A
:102750009146154D01E680220024120379E61D0002
:102760000E00203DEE40B046202B04D04025EB1A51
:102770009940084381464E464346711E8E411E4392
:1027800067E7861896429B4161445B42C9183D0049
:102790008CE547463743CED007224146324049E6D2
:1027A00000273A00E6E5C046FF070000FFFF7FFF75
:1027B00030B5144D0A034B00120B5B0DC90F0024FA
:1027C000AB4211DD104CA34210DC80246403224391
:1027D0000E4CE41A1F2C0CDD0D48C31ADA4013000E
:1027E0005C42002900D11C00200030BD094BCC18F0
:1027F000FAE7094DE040AC4663449A4013000343B6
:10280000EEE7C046FE0300001D0400003304000094
:1028100013040000FFFFFF7FEDFBFFFF70B50028F2
:102820002DD0C317C5185D40C40F280000F0B4F8C0
:10283000154B1B1A5B055B0D0A2815DD0B3885400F
:1028400000222D032D0B002110002D030A0D2D0B4E
:1028500012052A430D4D1B052A4013435B00E40774
:102860005B082343190070BD020029001532914016
:102870000A000B21081AC5402D032D0BE3E70024A5
:10288000002300250022DEE71E040000FFFF0F806A
:1028900010B5041E25D000F07FF8144B1B1A5B0501
:1028A0005B0D0A2812DD0B38844000222403240B20
:1028B0000021100024030A0D240B120522430C4CA6
:1028C0001B05224013435B00590810BD0200210084
:1028D000153291400A000B21081AC4402403240B2E
:1028E000E6E7002300240022E2E7C0461E040000C1
:1028F000FFFF0F804100090E4B1C70B5DBB2460292
:10290000750AC40F012B14DDE0239B006D07360B05
:10291000CB1800210A0D280012051C4D32435B051F
:102920002A405B0813435B00E4075B08234319005C
:1029300070BD002914D1002D1ED0280000F02CF805
:102940000A281CDC0B232A001B1ADA40030015336B
:102950009D400F4B12031B1A5B05160B5B0DD8E74E
:10296000002D06D0320B802636036D071643094B27
:10297000CFE7084B0026CCE700230026C9E7030079
:102980002A000B3B9A400025E3E7C046FFFF0F807B
:1029900089030000FF0700001C2101231B0498424B
:1029A00001D3000C10391B0A984201D3000A0839E0
:1029B0001B09984201D30009043902A2105C401897
:1029C0007047C0460403020201010101000000003B
:1029D0000000000010B5002903D1FFF7DDFF203013
:1029E00002E0081CFFF7D8FF10BDC046F0B54E4608
:1029F0005746DE464546E0B50F00002183B006008D
:102A00008946002F06DA3900002746428F4101210E
:102A100049428946002B07DA4946C94310008946D6
:102A20001900002342428B4134003D0092469846F3
:102A3000BB4269D866D041465046FFF7CBFF83467C
:102A400039003000FFF7C6FF5B461B1A9C46203B4F
:102A50009B4600D575E05146584681400B005146D3
:102A6000604681400A00BB4261D85ED034003D0020
:102A70005946A41A9D41002900DA7AE0002100207D
:102A800001260090019159468E400196614601262B
:102A90008E4061460096002950D0D90756085F083D
:102AA0000E4363460EE0AF4201D1A6420CD8A41BF0
:102AB000BD41012124196D410022013B641855419B
:102AC000002B06D0AF42EED9013B24196D41002BFB
:102AD000F8D1009801995B4600196941002B3DDB54
:102AE0002E00DE4063462C00DC405B46002B4BDBB7
:102AF00034005D46AC4023006446A6403200801A94
:102B0000994103E0B24296D9002000214B46002BA8
:102B100004D003000C0000215842A14103B03CBC8A
:102B200090469946A246AB46F0BDB1429ED90021DF
:102B300000200090019161460029AED100980199D2
:102B4000E4E72023624651469B1AD9404046009153
:102B500061468840030000990B4380E762462023CA
:102B60009B1A2A009A40260013006246D6401E4354
:102B7000B8E7614620260127761A00200021F74099
:102B800000900191019781E7674620236246350056
:102B9000BC409B1ADD4023002B43ADE710B5040079
:102BA0000F4B1978FA208000FDF7B6FA01000D4BA3
:102BB0001868FDF7B1FA00F08FF800280DD1032C4A
:102BC00001D901200AE0013000222100404200F03A
:102BD00049F8054B1C60002000E0012010BDC046F4
:102BE00000000020080000200400002010B5084A62
:102BF000136840210B4313600020FFF7CFFF041E32
:102C000002D00124200010BD02F0D8FBFAE7C04634
:102C100000200240014B18687047C046082300207E
:102C200070B50400FFF7F6FF0500631C02D0044BEB
:102C30001B78E418FFF7EEFF401BA042FAD370BDEB
:102C400000000020024A136802218B431360704782
:102C500010E000E0024A136802210B431360704742
:102C600010E000E070B5002811DB8408134DC0347B
:102C7000A400625903231840C000FC331E008640A4
:102C8000B24389010B4083401343635170BDC0B20E
:102C90000F220240083A920806329200084BD318DD
:102CA0005D6803242040C000FF2214008440A54337
:102CB00089010A4082402A435A60E7E700E100E0C8
:102CC00000ED00E01F2318401E3B8340014A1360C3
:102CD0007047C04600E100E001380A4B98420FD827
:102CE000094A50600948036A1B021B0AC0210906F1
:102CF0000B43036200239360073313600020704787
:102D00000120FCE7FFFFFF0010E000E000ED00E025
:102D1000F0B5CE46474680B5002333E0052600E0F7
:102D20000026AE4035003D430234A400574EA55165
:102D3000574C2568D4432E0026404F68FF0301D529
:102D400015432E00524D2E606D682E0026404F68B0
:102D5000BF0301D515432E004D4D6E60AD682E00AA
:102D600026404F68FF0201D515432E00484DAE6046
:102D7000ED682C404E68B60201D52A431400444A3F
:102D8000D46001330A681400DC407AD001249C40EE
:102D90002240F6D04D686E1E012E03D9112D01D0B0
:102DA000122D12D185685F000326BE40B5432E0068
:102DB000CD68BD40354385604568A5434C6826090C
:102DC000012434409C402C434460C7685E000324C7
:102DD000B440E443A44627408D68B5403D43C560F8
:102DE0004C68022C01D0122C10D1DC080834A4004D
:102DF000A146275807251D40AD000F24AC40A7432E
:102E00000C69AC4025003D434C462550056864469E
:102E1000254003244F683C40B4402C4304604C6878
:102E2000E400AED51B4D6C6B012634436C639C08EB
:102E3000A51CAD00154EAF5903261E40B5000F2648
:102E4000AE40B743A026F605B04200D168E7124E67
:102E5000B0420ED0114EB0420DD0114EB0420CD047
:102E6000104EB0420BD0104EB04200D156E70626AD
:102E700057E7012655E7022653E7032651E70426C4
:102E80004FE70CBC90469946F0BDC046000001409B
:102E900000040140001002400004005000080050EF
:102EA000000C005000100050001C0050002A01D1FE
:102EB000816270478161FCE710B5054B5B69184280
:102EC00000D110BD024B586115F0B6FCF9E7C046C1
:102ED0000004014010B5041E59D04123C35C002BEF
:102EE00043D041232422E2542268136801218B43FA
:102EF00013602268274B61680B4013612268936856
:102F000025490B409360E368012B34D02268842369
:102F10001B02A1680B439360E368022B32D0226846
:102F200051681E4B0B4353602268D3681A490B400B
:102F3000D360236962691343A269120221681343B3
:102F4000CB602268E369216A0B431360226813682F
:102F500001210B4313600023636441221F31A154FC
:102F600023630132A354002010BD40330022C25419
:102F700002F08EF8B5E7226880231B02A1680B439C
:102F80009360C9E72368802212015A60C7E70120D5
:102F9000EAE7C046FFFFFFF0FF7FFFFF008000026F
:102FA000F0B54123C35C202B20D12033C35C012B1F
:102FB0001ED0402401220255412524234355066892
:102FC000336893433360066833680A4F3B4033608D
:102FD000066833681943316001680B6813430B605E
:102FE0002023435500230355002000E00220F0BDBC
:102FF0000220FCE7FFEFFFFFF0B54123C35C202B6D
:103000001ED12033C35C012B1CD040240122025569
:10301000412524234355066833689343336006688B
:103020003368094F3B4009021943316001680B685E
:1030300013430B602023435500230355002000E079
:103040000220F0BD0220FCE7FFF0FFFF044A536BB3
:1030500001210B435363034A536818435060704780
:103060000010024000000140034A116880235B0009
:103070000B4313607047C0460070004010B50C4A07
:1030800013680324A343184310600A4A13690420F9
:1030900003431361012908D040BF20BF20BF054A68
:1030A000136904218B43136110BD30BFF7E7C0469D
:1030B0000070004000ED00E0034A11688023DB004F
:1030C0000B4313607047C04600700040034A11680C
:1030D00080239B000B4313607047C0460070004084
:1030E00010B5264BD9680C230B40082B42D00C2B73
:1030F00011D0042B09D0214B5A68520B07231340DF
:10310000013380200002984010BD1C4B1B68DB0679
:1031100032D51B48F8E78A0C0F231340194AD05CBC
:10312000890D032211400131144BDB68DB030DD400
:10313000124B1B68DB0613D54201121A93019B1A2E
:10314000DB001B181802FCF7E7FFDDE74201121A4B
:1031500093019B1ADB001B185802FCF7DDFFD3E735
:103160004201121A93019B1ADB001B189802FCF70C
:10317000D3FFC9E70448C7E70448C5E70010024089
:1031800000093D00BC9E010800127A000024F400F2
:10319000F0B583B0041E00D19FE2C44BDA680C2561
:1031A0001540DA688026760216400368DB0736D5BC
:1031B000082D2CD00C2D28D0636880225202934217
:1031C00055D0A022D202934258D0B84B1A68B849C1
:1031D0000A401A601A68802149020A400192019A45
:1031E0001A68B4490A401A606368002B52D0FFF78E
:1031F00011FD0700AD4B1B689B0310D4FFF70AFDC0
:10320000C01B6428F6D9032068E2002ED4D0A74B57
:103210001B689B0303D56368002B00D160E2236821
:103220009B076CD5E3689A0605D5A0480268202163
:103230000A4302608B43042D3CD00C2D38D0002B68
:1032400000D1AEE099490A680920824313430B601C
:10325000FFF7E0FC0600954B1B685B0700D597E085
:10326000FFF7D8FC801B0228F5D9032036E28F4AED
:10327000116880235B020B431360B5E78B4B196821
:103280008022D2020A431A601968802252020A433D
:103290001A60A9E7FFF7BEFC0700844B1B689B037D
:1032A000BDD5FFF7B7FCC01B6428F6D9032015E293
:1032B000002EC4D17D4A1268520702D5002B00D1DE
:1032C00010E27A4E72687C490A40216909020A4379
:1032D0007260326809218A4313433360FFF700FFAD
:1032E000F26812090F231340744AD35CD840744B20
:1032F00018600020FFF752FC002800D0EEE12368A0
:10330000DB062CD5002D5FD1684B1B689B0503D5D0
:10331000E369002B00D1E7E1644A536869490B4037
:10332000616A0B43536053681B021B0A216A09063A
:103330000B435360636A590B013180231B028B409E
:10334000D16809090F220A405C498A5CD3405C4A73
:1033500013600020FFF722FC002800D0BEE12368A4
:103360001B077DD56369002B67D0504A136D01217F
:103370000B431365FFF74EFC06004C4B1B6D9B0780
:103380006ED4FFF747FC801B0228F6D90320A5E185
:1033900046494B68484A13402269120213434B6066
:1033A000ADE7424A136801218B431360FFF732FCFB
:1033B00006003E4B1B685B07A1D5FFF72BFC801B6B
:1033C0000228F6D9032089E1E369002B22D0374A8D
:1033D000116880235B000B431360FFF71BFC0600A2
:1033E000324B1B689B0506D4FFF714FC801B022898
:1033F000F6D9032072E12D4A536832490B40616AC5
:103400000B43536053681B021B0A216A09060B43D6
:103410005360A4E7254A13682B490B401360FFF75C
:10342000F9FB0600214B1B689B0598D5FFF7F2FBC3
:10343000801B0228F6D9032050E11C4A136D01219C
:103440008B431365FFF7E6FB0600184B1B6D9B07CC
:1034500006D5FFF7DFFB801B0228F6D903203DE1EC
:1034600023685B0700D48CE0104B9B6BDB001BD404
:103470000E4A916B80235B050B4393630126134B2C
:103480001B68DB0526D5A36880225200934235D005
:10349000002B4BD1054B1A6D0B490A401A651A6D6A
:1034A0000B490A401A652FE00026E8E700100240A9
:1034B000FFFFFEFFFFFFFBFFFFE0FFFFA49E0108F1
:1034C00008000020FF1FFFFFFFFEFFFF007000400D
:1034D000FFFBFFFF884A116880235B000B431360EA
:1034E000FFF798FB0700844B1B68DB05CBD4FFF785
:1034F00091FBC01B6428F6D90320EFE07F4A116DD1
:1035000080235B000B431365A368002B28D0FFF7D3
:1035100081FB0700794B1B6D9B0530D4FFF77AFBCD
:10352000C01B774B9842F5D90320D7E0A022D200E8
:10353000934209D0714B1A6D72490A401A651A6D8F
:1035400071490A401A65DFE76C4B196D013AFF3A81
:103550000A431A65196D802252000A431A65D3E79F
:10356000FFF758FB0700654B1B6D9B0507D5FFF761
:1035700051FBC01B624B9842F5D90320AEE0012EEF
:1035800021D023689B063CD5A369002B21D05B4B3F
:1035900099680120014399605A6B02435A635B4A60
:1035A000116A80239B010B431362FFF733FB060074
:1035B000524B9B689B0724D4FFF72CFB801B0228EF
:1035C000F6D903208AE04D4A936B51490B4093632F
:1035D000D7E74A4A936801218B4393604B4A136AA9
:1035E0004C490B401362FFF715FB0600434B9B68E9
:1035F0009B0706D5FFF70EFB801B0228F6D9032098
:103600006CE0A36A002B00D170E00C2D49D0022B96
:1036100012D03A4A136840490B401360FFF7FAFA98
:103620000400364B1B689B0139D5FFF7F3FA001BEA
:103630000228F6D9032051E0304A136836490B407E
:103640001360FFF7E7FA05002C4B1B689B0106D5BA
:10365000FFF7E0FA401B0228F6D903203EE0274995
:10366000CB682E4A1340E26A206B0243606B024330
:103670001343CB600A6880235B0413430B60FFF79E
:10368000C9FA04001D4B1B689B0106D4FFF7C2FA60
:10369000001B0228F6D9032020E000201EE00020B5
:1036A0001CE0012B24D0154BDA6880235B02134009
:1036B000E16A8B4201D0012010E0F0239B0313400C
:1036C000216B8B4201D0012008E0C0231B041A406B
:1036D000636B9A420ED0012000E0012003B0F0BDE0
:1036E0000120FBE70120F9E70120F7E70020F5E7DB
:1036F0000120F3E70020F1E70070004000100240D5
:1037000088130000FFFEFFFFFFFBFFFF00000140EA
:10371000FFFFFFEFFFDFFFFFFFFFFFFEFFFF02FFE7
:1037200070B504000D00002800D1BAE05F4B1A68A4
:10373000012313408B420BD25C490B680122934357
:103740002B430B600B681A40AA4201D00120A9E06C
:1037500023689B0706D5564AD368F0218B43A1689E
:103760000B43D3602368DB0764D56368022B09D061
:10377000032B29D0012B2DD04D4A1268920506D477
:1037800001208FE04A4A1268920300D48BE0484936
:10379000CA68032082431343CB60FFF73BFA06005D
:1037A0006368022B1CD0032B28D0012B34D0404B54
:1037B000DB680C221A423DD0FFF72CFA801B3D4BF0
:1037C0009842F4D903206DE0394A12689201DED4A0
:1037D000012067E0364A12685207D8D4012061E020
:1037E000334BDA680C231340082B23D0FFF712FA6F
:1037F000801B304B9842F3D9032053E02C4BDA68FE
:103800000C2313400C2B15D0FFF704FA801B294B17
:103810009842F3D9032045E0254BDA680C23134086
:10382000042B07D0FFF7F6F9801B224B9842F3D9FF
:10383000032037E01D4B1A6801231340AB420BD91C
:103840001A490B68012293432B430B600B681A4003
:10385000AA4201D0012025E023685B0706D5144A5F
:10386000D36815490B40E1680B43D36023681B07FD
:1038700007D50F49CB68114A13402269D200134380
:10388000CB60FFF72DFC0A4BDA6812090F231340B7
:103890000B4AD35CD8400B4B18600020FFF77EF931
:1038A00000E0012070BD0120FCE7C046002002407E
:1038B0000010024088130000FFF8FFFFFFC7FFFF62
:1038C000A49E010808000020014B18687047C046FC
:1038D0000800002010B5FFF7F7FF044BDA68120A62
:1038E00007231340024AD35CD84010BD00100240A9
:1038F000B49E010810B5FFF7E7FF044BDA68D20A5F
:1039000007231340024AD35CD84010BD0010024088
:10391000B49E010870B5040003689B0650D56C4B3B
:103920009B6BDB0000D593E0694A916B80235B05BC
:103930000B4393630125674B1B68DB0500D489E0CB
:10394000634B1968C0239B031940626813408B4284
:1039500006D0C0239B0211001940994200D18EE08D
:103960005B4B1B6DC02189020B4016D00A409A4266
:1039700013D023689B0610D5554B186D564A02404C
:103980001E6D8021090331431965196D534E314075
:1039900019651A65C30500D578E06368C0229202F4
:1039A00019001140914200D180E049490B6DC022BD
:1039B00092026068024013430B65012D00D17FE045
:1039C0002368DB0706D5424AD36C03218B43A168E9
:1039D0000B43D36423689B0706D53D4AD36C0C2167
:1039E0008B43E1680B43D36423685B0706D5384AF1
:1039F000D36C3B490B4021690B43D36423681B07FD
:103A000006D5334AD36C37490B4061690B43D36405
:103A10002368DB0506D52E4AD36C2F490B40A169DC
:103A20000B43D36423685B0606D5294AD36C2E4921
:103A30000B40216A0B43D36423681B0646D5244AF6
:103A4000D36C2A490B40E1690B43D364002070BD5D
:103A5000002570E71F4A116880235B000B43136049
:103A6000FFF7D8F806001B4B1B68DB0500D567E79E
:103A7000FFF7D0F8801B6428F5D90320E7E7144B43
:103A80001B689B0300D46BE70120E0E7FFF7C2F857
:103A900006000F4B1B6D9B0500D57EE7FFF7BAF8BC
:103AA000801B134B9842F4D90320D0E708490A68D9
:103AB00010480240C0208003034013430B6074E7AA
:103AC0000A008B6B0C490B40936379E70020BEE73B
:103AD0000010024000700040FFFFFCFFFFFFF7FFF7
:103AE000FFF3FFFFFFCFFFFFFFFFFFFBFFFFF3FF32
:103AF00088130000FFFFCFFFFFFFFFEF70B504004A
:103B00000268D368A0218B43D360FFF783F80500D8
:103B10002368DB689B0608D4FFF77CF8401BFA2378
:103B20009B009842F4D9032000E0002070BD70B5DE
:103B300004000368DA68520601D5002070BD012236
:103B40005242DA60FFF766F805002368DB685B061F
:103B500008D4FFF75FF8401BFA239B009842F4D982
:103B60000320EBE70020E9E770B5041E63D02123B2
:103B7000C35C002B40D021230222E2542368C832C8
:103B80005A622368773A5A622000FFF7D0FF051E79
:103B900038D12268936829490B40936021688A686C
:103BA000636820690343A069034313438B60236860
:103BB000E2681A6121680B69A268120413430B6161
:103BC0002268D36880218B43D3602268D36C7D390F
:103BD0008B43D3642168CB6CE26960690243134371
:103BE000CB6423689B689B0615D52368FF225A6225
:103BF0002123FE3AE2540CE020330022C25401F0AB
:103C000061FBB8E72368FF225A622123FB3AE254A2
:103C10000125280070BD2000FFF770FF0028E4D0C8
:103C20002368FF225A622123FB3AE254013B00221F
:103C3000E2540125EDE70125EBE7C046BFFF8FFF0A
:103C4000002302E001330A38C0B20928FAD81B0168
:103C5000DBB2184370470000F8B504000E002023C3
:103C6000C35C012B00D178E020230121C154013332
:103C70000131C154002A43D103689B685B0601D41B
:103C80000023F3703078FFF7DBFF05047078FFF74F
:103C9000D7FF00020543B078FFF7D2FF0543F07865
:103CA000000405432368CA225A622368773A5A629D
:103CB0002000FFF73CFF071E33D12368284805404A
:103CC0001D602268936827490B40936021688B68C8
:103CD000F2683069024313438B602268D368802105
:103CE0008B43D36023689B689B0626D52368FF22FD
:103CF0005A622123FE3AE254013B0022E2541AE0C8
:103D000003689B685B0601D40023F37035782D04AB
:103D1000707800020543B0780543F078000405434D
:103D2000C0E72368FF225A622123FB3AE254013B99
:103D30000022E25401273800F8BD2000FFF7DEFE24
:103D40000028D3D02368FF225A622123FB3AE25491
:103D5000013B0022E2540127EDE70227EBE7C046D2
:103D60007F7F7F00FFFFFBFF70B504000E00202364
:103D7000C35C012B69D020230121C15401330131DF
:103D8000C154002A06D17378D90603D510218B437C
:103D90000A337370002A31D1F078FFF751FF050420
:103DA0007078FFF74DFF00020543B078FFF748FF3A
:103DB00005433078400305432368CA225A622368CA
:103DC000773A5A622000FFF7B2FE061E21D123681F
:103DD0001F4805405D602268D36880218B43D36013
:103DE00023689B689B0620D52368FF225A62212303
:103DF000FE3AE254013B0022E25414E0F5782D042F
:103E0000707800020543B0780543307840030543DD
:103E1000D2E72368FF225A622123FB3AE254013B96
:103E20000022E2540126300070BD2000FFF766FE3C
:103E30000028D9D02368FF225A622123FB3AE2549A
:103E4000013B0022E2540126EDE70226EBE7C046E3
:103E50003FFFFF00020993009B185A000F231840F0
:103E60008018C0B270470000F8B50C0003689B6A68
:103E70004B6003681B695B045B0C8B6003681B6809
:103E80000E490B401E0C3F20304020701D0A7F273A
:103E90003D4065701F40A77040213140E170002A0D
:103EA0000AD1FFF7D7FF20702800FFF7D3FF60701B
:103EB0003800FFF7CFFFA0700020F8BD7F7F7F00A4
:103EC00070B50C0003685B680E490B40180CE0707D
:103ED000190A1F260E4066703F251D40A5705B0B1A
:103EE00007210B402370002A0AD1FFF7B3FFE070CF
:103EF0003000FFF7AFFF60702800FFF7ABFFA07046
:103F0000002070BD3FFFFF00F8B504000E00150053
:103F10002023C35C012B00D177E020230122C2546F
:103F200001330132C2540368C8325A620368773AD7
:103F30005A6203689B685B0518D5FEF76BFE0700A5
:103F40002368DB685B0711D5FEF764FEC01BFA230C
:103F50009B009842F4D92368FF225A622123FC3A3D
:103F6000E254013B0022E25403204DE022689368B2
:103F700027490B4093602168CA68FF231A40254BEC
:103F80001343CB60FEF746FE07002368DA6852074A
:103F900011D4FEF73FFEC01BFA239B009842F4D9D0
:103FA0002368FF225A622123FC3AE254013B00229B
:103FB000E254032028E05E612268936807218B4366
:103FC0009360226893681D439560134B19688022A3
:103FD00052031143196099680A439A6022689168F4
:103FE0008023DB010B439360226891688023DB0010
:103FF0000B4393602368FF225A622123FE3AE25466
:10400000013B0022E2540020F8BD0220FCE7C0463C
:10401000FFFBFFFF7FFBFFFF0004014070B50400C2
:104020002023C35C012B38D020230122C25401334A
:104030000132C2540368C8325A620368773A5A623E
:104040000268936816490B409360026893681549AB
:104050000B409360FEF7DEFD05002368DA68520727
:1040600011D4FEF7D7FD401BFA239B009842F4D9E8
:104070002368FF225A622123FC3AE254013B0022CA
:10408000E254032008E0FF225A622123FE3AE25460
:10409000013B0022E254002070BD0220FCE7C04634
:1040A000FFFBFFFFFFBFFFFF10B504000368DB68E5
:1040B0005B0507D4084B802252035A612123012259
:1040C000E25410BD14F084FF2168CA68FF231A402F
:1040D000024B1343CB60EDE7000401407FFBFFFF81
:1040E000F8B506000C0017001D0033689B682340DC
:1040F0001B1B5A425341BB423BD06B1CF5D0FEF711
:1041000089FD069BC01AA84201D2002DEDD132686C
:104110005368E0218B43536082235B0072689A42AC
:104120000CD080239B01B26A9A4216D051230122FF
:10413000F254013B0022F25403201BE0B3688022BA
:104140001202934203D08022D2009342E9D1326816
:10415000136840218B431360E3E732681368064914
:104160000B4013603268116880239B010B4313607E
:10417000DCE70020F8BDC046FFDFFFFF10B582B0CE
:104180000400822040006368834206D05120205CF6
:10419000052811D0002002B010BD00920B000022B3
:1041A00080212000FFF79CFF0028F4D0636D2022BF
:1041B000134363650320EEE700920B000022012108
:1041C0002000FFF78DFF0028E5D0636D2022134308
:1041D00063650320DFE7000010B5041E3BD0002319
:1041E00083625133C35C002B2FD051220223A3548E
:1041F00021680B68402083430B606368A1680B4310
:10420000E1680B4321690B4361690B4380218900FD
:10421000A06901400B43E1690B43216A0B4321680C
:10422000A06A03430B60618B04230B402168606A22
:1042300003434B602168CB6908480340CB610023EE
:1042400063650133A354002010BD50330022C254D3
:1042500001F074F8C9E70120F6E7C046FFF7FFFF59
:10426000F0B585B004000E0001921D005023C35C20
:10427000012B00D108E150230122C254FEF7CAFCF1
:1042800007005123E35CDBB26268012B14D082216A
:1042900049008A4208D0022051230122E254013B06
:1042A0000022E25405B0F0BDA268002A00D0DDE093
:1042B000042B01D00220EFE7002E00D1D8E0019BB3
:1042C000002B00D1D6E0002D00D1D5E05123E35CD6
:1042D000042B02D051230522E25400236365019A86
:1042E000A263E587A5872663E586A58623646364C4
:1042F00023681A68520603D41A6840210A431A60D8
:1043000080231B01E2689A4211D06368002B01D020
:10431000012D0AD1236B1B7822681373236B0133A1
:104320002363E38E013B9BB2E386012569E063686A
:10433000002B01D0012D0AD12368226B1288DA608C
:10434000236B02332363E38E013B9BB2E38601259B
:104350001BE023689A68D2070ED5E28F92B2002A3A
:104360000AD0DB68A26B1380A36B0233A363E38FD5
:10437000013B9BB2E3870125FEF74CFCC01B0A9B67
:10438000984202D3013300D078E0E38E9BB2002B39
:1043900003D1E38F9BB2002B51D023689A68920718
:1043A000D7D5E28E92B2002AD3D0012DD1D1226B83
:1043B0001288DA60236B02332363E38E013B9BB2E6
:1043C000E3860025C5E723689A68D2070ED5E28FF9
:1043D00092B2002A0AD0DB68A26B1370A36B013380
:1043E000A363E38F013B9BB2E3870125FEF712FC39
:1043F000C01B0A9B984201D3013341D10A9B002B79
:1044000040D0E38E9BB2002B03D1E38F9BB2002BF5
:1044100015D023689A689207D5D5E28E92B2002A09
:10442000D1D0012DCFD1226B12781A73236B0133B7
:104430002363E38E013B9BB2E3860025C3E73A008A
:104440000A992000FFF79AFE002803D02023636515
:10445000012021E7A368002B00D01DE70393236808
:10446000DA6803929B680393039B15E7022013E726
:10447000012011E701200FE701200DE703200BE7E2
:10448000032009E7032007E702200BE703688022E7
:10449000D205904208D0154A904205D0144A904265
:1044A00002D0144A904203D1702293434A681343C6
:1044B0008022D205904208D00C4A904205D00C4A86
:1044C000904202D00B4A904203D10B4A1340CA6873
:1044D0001343802293430A69134303608B68C362CA
:1044E0000B688362012343617047C04600040040AB
:1044F0000008014000140140FFFCFFFF30B5036AD3
:10450000046A0125AC4304628469EF35AC431201AF
:1045100022430A24A34319438261016230BD000093
:1045200030B5036A1024A34303628469036A054D0E
:104530002C4012032243A024A343090119438261A2
:10454000016230BDFF0FFFFF0B00816870229143B5
:1045500019430723194381607047000030B5846810
:10456000034D2C401B021A4311432143816030BD8F
:10457000FF00FFFF70B5041E14D03923C35C002B6D
:104580000AD0392502236355211D2068FFF77EFFDD
:1045900001236355002070BD38330022C25400F05F
:1045A000AFFFEEE70120F6E710B504003823C35C47
:1045B000012B66D038230122C25401330132C25488
:1045C000026893683048034093600B68402B4ED0DC
:1045D00015D9602B41D021D9702B2BD0802292018C
:1045E000934232D1CB684A6889682068FFF7B6FFEA
:1045F000226891688023DB010B43936025E0102B38
:1046000007D004D9202B04D0302B02D01DE0002B82
:104610001BD119002068FFF797FF16E0502B14D12B
:10462000CA6849682068FFF769FF50212068FFF7D2
:104630008BFF0AE0CB684A6889682068FFF78EFF25
:104640002268936877210B43936039230122E25457
:10465000013B0022E254002010BDCA68496820686E
:10466000FFF75EFF60212068FFF76EFFEDE7CA6885
:1046700049682068FFF742FF40212068FFF764FF88
:10468000E3E70220E8E7C0468800FFFFF0B53823E3
:10469000C35C012B1BD0382601239C468355392748
:1046A0000133C3550268546893687025AC430D68A4
:1046B0002C438025AB431D004B682B43546002689C
:1046C00093606346C355002383550020F0BD02204C
:1046D000FCE70000D0B50400016883680269134359
:1046E00042691343C26913430A68BA48024013433C
:1046F0000B6022685368B8490B40E1680B43536074
:10470000A1692268B54B9A4201D0236A1943936884
:10471000B34803400B4393602368B24A93421CD0D2
:10472000B14A93422DD0B14A93425FD0B04A9342EE
:104730005ED0AA4A934239D01022A8498B425BD05E
:1047400080231B02E169994200D190E0082A00D938
:1047500071E19200A74B9B589F46A74AD16C032258
:104760000A40012A09D0002A05D0022A3AD0032A99
:1047700005D01022E1E70122DFE70422DDE708226D
:10478000DBE79D4AD16C0C220A40042A0AD005D9E5
:10479000082A29D00C2A07D10822CEE7002A03D103
:1047A0000022CAE70422C8E71022C6E7924AD26C68
:1047B000C02109010A408021C9008A420ED009D9CE
:1047C000802109018A4215D0C02109018A4207D1FE
:1047D0000822B2E7002A03D10022AEE70422ACE7A8
:1047E0001022AAE70222A8E70222A6E70022A4E7F5
:1047F0000022A2E70222A0E7022A2DD007D9042A2C
:1048000030D0082A00D019E18020000207E0002AF9
:1048100000D013E1FFF75EF8002800D110E16268D4
:1048200053009B18834200D90CE11303834200D24A
:104830000AE1070E06025008002180197941002381
:10484000FBF77CFE6D4BC2186D4B9A4200D9FDE020
:104850002368D860002085E0674B1B68DB0604D422
:104860006848DCE7FEF73CFCD6E76748D7E7082A4C
:1048700062D89200654B9B589F46FFF72BF840008B
:1048800063685B08C0186168FBF746FC03041B0CF7
:1048900000205F491A00103A8A4200D9D8E00F225E
:1048A000190091435B08083A13400B432268D36018
:1048B00058E0FFF71FF8400063685B08C0186168A4
:1048C000FBF72AFC03041B0C0020E2E74A4B1B68A1
:1048D000DB060BD5636858084E4B9C466044616804
:1048E000FBF71AFC03041B0C0020D2E7636858088E
:1048F000494B9C4660446168FBF70EFC03041B0CAB
:104900000020C6E7FEF7ECFB400063685B08C018B8
:104910006168FBF701FC03041B0C0020B9E7636826
:10492000580880235B029C4660446168FBF7F4FBF7
:1049300003041B0C0020ACE701200023A9E7FEF7CD
:10494000C9FF63685B08C0186168FBF7E5FB0304F7
:104950001B0C00202E491A00103A8A4200D979E037
:104960002268D360002323666366D0BDFEF7C2FFD2
:1049700063685B08C0186168FBF7CEFB03041B0C7F
:104980000020E7E71C4B1B68DB060BD56368580863
:104990001D4B9C4660446168FBF7BEFB03041B0C87
:1049A0000020D7E763685808164B9C46604461684E
:1049B000FBF7B2FB03041B0C0020CBE7FEF790FBD8
:1049C00063685B08C0186168FBF7A6FB03041B0C57
:1049D0000020BFE7F369FFEFFFCFFFFF0048004073
:1049E000FFF4FFFF0038014000440040004C00404D
:1049F000005000404C9E01080010024000FDFFFFE7
:104A0000FFFC0F000024F40000093D00709E010827
:104A1000EFFF000000127A000048E80163685808C0
:104A200080231B029C4660446168FBF775FB03040E
:104A30001B0C00208EE7012000238BE7012091E76B
:104A400000208FE701208DE701208BE7012089E717
:104A5000012087E7012085E7436ADB0706D5026866
:104A600053682C490B40816A0B435360436A9B0790
:104A700006D50268536828490B40C16A0B4353604E
:104A8000436A5B0706D50268536824490B40016BF3
:104A90000B435360436A1B0706D5026853682049DD
:104AA0000B40416B0B435360436ADB0606D502683B
:104AB00093681C490B40816B0B439360436A9B06D0
:104AC00006D50268936818490B40C16B0B4393608D
:104AD000436A5B060BD50268536814490B40016CAE
:104AE0000B43536080235B03026C9A420AD0436AF3
:104AF0001B0606D5026853680D490B40816C0B43B9
:104B000053607047026853680A490B40416C0B437D
:104B10005360ECE7FFFFFDFFFFFFFEFFFFFFFBFF22
:104B2000FF7FFFFFFFEFFFFFFFDFFFFFFFFFEFFF55
:104B3000FFFFF7FFFFFF9FFFF0B5C64600B5060079
:104B40000C0017009846069D3368DB6923401B1B49
:104B50005A425341BB421CD16B1CF5D0FEF75AF8A8
:104B60004346C01AA84201D8002DEDD1326813681F
:104B70000A490B40136032689368A331FF318B43BD
:104B8000936020237367B36750330022F2540320ED
:104B900000E0002004BC9046F0BDC0465FFEFFFF71
:104BA000F0B585B004000E0017001D00436F202BE8
:104BB0005FD1002960D0002A60D080235B01826829
:104BC0009A4218D07023E35C012B59D07023012244
:104BD000E2540023E36721336367FEF71BF8039079
:104BE0005023E7520233E75280235B01A2689A42C6
:104BF00008D0002716E00369002BE3D1CB07E1D5ED
:104C0000012037E02369002B21D000270AE03B88F0
:104C10002268DB05DB0D936202375222A35A013B67
:104C20009BB2A3525223E35A9BB2002B12D00095A1
:104C3000039B002280212000FFF77EFF002821D166
:104C4000002EE4D0327823689A620136E5E7370017
:104C50000026E7E70095039B002240212000FFF794
:104C60006BFF002810D12023636750330022E254E9
:104C700000E0022005B0F0BD0120FBE70120F9E7CC
:104C80000220F7E70320F5E70320F3E730B583B010
:104C900004000023C367FDF7BDFF050023681B6800
:104CA0001B070CD423681B685B0715D4202363679C
:104CB000A36750330022E254002003B030BD8021AE
:104CC0000C4B00930300002289032000FFF734FF00
:104CD0000028E7D00320F0E78021064B00932B004B
:104CE0000022C9032000FFF727FF0028DED00320A1
:104CF000E3E7C046FFFFFF0110B5041E2ED0436F4F
:104D0000002B21D0242363672268136801218B4381
:104D100013602000FFF7DEFC012814D0636A002B2B
:104D200018D1226853680E490B405360226893687B
:104D30002A218B4393602268136829390B4313603F
:104D40002000FFF7A3FF10BD70330022C25400F013
:104D500005FCD7E72000FFF77FFEE2E70120F2E73E
:104D6000FFB7FFFFF0B5DE4657464E46C0B58AB0E6
:104D70001422002105A814F029FA5D4BDA6A0126F5
:104D80003243DA62DA6A32400192019ADA6A022721
:104D90003A43DA62DA6A3A400292029ADA6A0425FF
:104DA0002A43DA62DA6A2A400392039ADA6A802195
:104DB00089460A43DA62DB6A0B400493049B4D4C3C
:104DC00000222100A020C005FEF770F881210022FA
:104DD00049014948FEF76AF8002207214748FEF7D3
:104DE00065F8012204214448FEF760F80594069610
:104DF00000240794089705A9A020C005FDF788FFA7
:104E00002023059306960794089405A93A48FDF7D0
:104E10007FFF3B4B059303239B460693079405A90D
:104E2000A020C005FDF774FF13230593354B9A4668
:104E30000693079405A93048FDF76AFF324B0593A6
:104E40005B460693079405A92B48FDF761FF802375
:104E50009B01059353460693079405A92748FDF740
:104E600057FF4B460593294B99460693079405A98E
:104E70002148FDF74DFF07230593069607940897F1
:104E800005A91E48FDF744FF80235B0005934B46B0
:104E90000693079405A9A020C005FDF739FF0595E5
:104EA00006960796089405A91348FDF731FF80235D
:104EB0005B01059306960794089705A90E48FDF730
:104EC00027FF002200210520FDF7CCFE0520FDF77D
:104ED000F9FE002200210720FDF7C4FE0720FDF7A0
:104EE000F1FE0AB01CBC91469A46A346F0BDC046EE
:104EF0000010024002800000000400500008005032
:104F00003D1800000000111040EC000000002110CE
:104F1000F0B5CE4600B58AB00C22002107A814F0E7
:104F200055F93C4BDA6A01252A43DA62DA6A2A40EB
:104F30000192019ADA6A02263243DA62DA6A324070
:104F40000292029AD96A04221143D962D96A0A40AC
:104F50000392039AD96A80221143D962DB6A1A400C
:104F60000492049B2C4B059306950896A027FF05F9
:104F700005A93800FDF7CCFE2023059306950024F3
:104F80000794089405A92548FDF7C2FE244B059314
:104F9000032399460693079405A93800FDF7B8FE48
:104FA000132305931F4F0697079405A91B48FDF788
:104FB000AFFE1D4B05934B460693079405A9174872
:104FC000FDF7A6FE80239B0105930697079405A98C
:104FD0001648FDF79DFE80235B0105930695079417
:104FE000089605A90D48FDF793FE00220021052033
:104FF000FDF738FE0520FDF765FE002200210720A1
:10500000FDF730FE0720FDF75DFE0AB004BC9146B7
:10501000F0BDC046001002400280000000040050B5
:105020003D1800000000111040EC00000008005086
:1050300010B51448144B0360144B43600023836085
:105040000122C260036143618361C3610362FDF7B2
:1050500041FF00280CD100210A48FDF7A1FF0028DC
:1050600009D100210748FDF7C7FF002806D110BD70
:1050700000F0B0F8EFE700F0ADF8F2E700F0AAF8C2
:10508000F5E7C0460C23002000540040380F3000E4
:1050900010B586B004001422002101A814F096F87F
:1050A0002268154B9A4201D006B010BD134CE26A3B
:1050B00002231A43E262E26A13400093009BC0237A
:1050C0009B00019312230293113B03930233049339
:1050D0000133059301A90A48FDF71AFE802000015B
:1050E000FDF7B4FF8020C000FDF7B0FFA26B802366
:1050F0009B031343A363D7E7005400400010024012
:105100000004005030B59DB0382200210EA814F0E4
:105110005DF81422002109A814F058F82422002177
:10512000684614F053F81D490A681D4C224080233C
:105130001B0113430B60FDF797FF1A4A136D2340C1
:10514000136506230E93FA331093FF3B11930F332D
:10515000129302251895002419948023DB021A93D8
:105160008023DB031B930EA8FEF712F80F2309938D
:105170000C3B0A930B940C940D94012109A8FEF7A3
:10518000CFFA292300930295059480235B020193B3
:105190006846FEF7BFFB1DB030BDC0460070004042
:1051A000FFE7FFFF0010024010B5FDF71FFDFFF7FE
:1051B000A9FFFFF7D7FDFFF73BFF00F035F800F040
:1051C0009BF800F05FF900F0ABF912F057FE12F017
:1051D00077FEFCE77047000010B5024812F0ECFFC4
:1051E00010BDC0467800002010B5084812F0F8FB4A
:1051F00013F078FB064BD8820FF04AFB8021054A5A
:105200004900054812F0F0FE10BDC046949E01080A
:1052100090240020D95100081027000010B512F08A
:10522000EDFD00F01FFA10BD00B587B0142200217B
:1052300001A813F0CBFF002300932048204A02600E
:1052400043607F2282608032C26003614361836178
:10525000C361FEF789FC002823D101A900230B704C
:105260004B708B70CB600B6101221448FEF7F4FC8D
:10527000002819D101236A461370537093700023DC
:10528000D370012269460D48FEF76EFD00280ED14D
:10529000002200210948FEF737FE00280AD107B096
:1052A00000BDFFF797FFD8E7FFF794FFE2E7FFF7AE
:1052B00091FFEDE7FFF78EFFF1E7C046582300208E
:1052C0000028004010B50268094B9A4200D010BD7A
:1052D000084A116D8023DB020B4313650022002175
:1052E0000220FDF7BFFC0220FDF7ECFCEFE7C04613
:1052F000002800400010024010B50E480E4B03601D
:1053000082235B00436000238360C36003614361C9
:10531000802292008261C361036243628362073329
:10532000C362FEF759FF002800D110BDFFF752FFFE
:10533000FBE7C0467C2300200030014030B589B037
:1053400004001422002103A813F040FF2268184B28
:105350009A4201D009B030BD164B596B80225201E0
:105360000A435A63DA6A02242243DA62DA6A224082
:105370000192019AD96A01221143D962DB6A1A406B
:105380000292029B0823039304940325069503A924
:105390000948FDF7BDFCC023039304940023059343
:1053A00006950793A02003A9C005FDF7B1FCD1E73E
:1053B000003001400010024000040050054B5A6BC1
:1053C00001210A435A63996B802252050A439A636A
:1053D0007047C046001002407047FEE770477047B4
:1053E00010B513F037FE10BD10B50248FEF75CFE95
:1053F00010BDC0465823002010B50120FDF75CFD0C
:105400000220FDF759FD10BD10B51020FDF754FD29
:105410008020FDF751FD80204000FDF74DFD8020EC
:105420008001FDF749FD10BD104B19688022520024
:105430000A431A60DA680E490A40DA601A680D49B0
:105440000A401A609A6801218A439A601A680A49D8
:105450000A401A60DA6809490A40DA6000221A61D3
:10546000074B802212059A607047C0460010024028
:105470000C40FF88F6FFF6FEFFFFFBFFFFFF02FF79
:1054800000ED00E000B587B01022002102A813F063
:105490009DFE08220021684613F098FE1548164B21
:1054A0000360002343608360144AC2600361436168
:1054B000FFF760F8002813D180235B01029302A953
:1054C0000C48FFF771F800280DD1002300930193D9
:1054D00069460848FFF7DAF8002807D107B000BD91
:1054E000FFF778FEE8E7FFF775FEEEE7FFF772FEDD
:1054F000F4E7C046D423002000080140FFFF00006D
:105500000268054B9A4200D07047044A536B04214D
:105510000B435363F8E7C046000801400010024007
:1055200010B50C480C4B0360E1235B024360002381
:105530008360C36003610C2242618361C3610362C3
:105540004362FFF7D9FB002800D110BDFFF742FEF0
:10555000FBE7C046102400200038014010B586B09B
:1055600004001422002101A813F030FE2268114B20
:105570009A4201D006B010BD0F4B596B8022D20168
:105580000A435A63D96A01221143D962DB6A1A407D
:105590000092009BC023DB0001930223029301339E
:1055A000049301330593A02001A9C005FDF7B0FBCA
:1055B000E0E7C046003801400010024010B5034843
:1055C00012F03EFA024B01221A7010BDC89E01086B
:1055D0005C02002010B5034812F032FA024B01229F
:1055E0001A7010BDD49E01085D02002010B5114B49
:1055F00000200021186059600022DA601A619A6068
:105600001A7520215A545A841A7E1F398A431A76F1
:105610000A227F31013013F0DFF8074813F03EF91A
:1056200080210A224900002013F0D6F8034813F025
:1056300035F910BD90240020180000200C00002037
:10564000074B02221A7658325A76503A9A76043A22
:10565000DA760E321A770022DA831A620220704755
:10566000E425002010B52A4B1B78012B04D0294BD0
:105670001B78012B2BD010BD254B00221A70264C15
:10568000E38B0133E383236A013323620132282150
:10569000200011F0CBF8E18B204812F0D1F9216AFB
:1056A0001F4812F0CDF9002204211E48FDF7FEFB31
:1056B00012F012FEC82252000023FAF73FFF1343F4
:1056C000F6D0012204211748FDF7F0FBCFE716487A
:1056D00012F0B6F900230F4A13700F48C38301225A
:1056E000282111F0A3F8002204210E48FDF7DEFB6B
:1056F00012F0F2FDC82252000023FAF71FFF1343F5
:10570000F6D0012204210748FDF7D0FBB3E7C046DD
:105710005C0200205D020020E4250020E49E0108D8
:10572000F09E010800040050049F0108D0B512F05B
:10573000D3FD0F4C26686768801BB941FA2292009E
:105740000023FAF7FBFE43011B1A9B001B18D9002C
:1057500000227618574126606760E3681B18E360F3
:1057600023691B182361A3689C466044A060D0BDD8
:105770009024002010B512F0AFFD0100024812F095
:105780005FF9012010BDC04614A0010800B583B028
:1057900012F0A2FD01000E4812F052F90D4920202E
:1057A00012F032FAFFF722FF684612F0FBF90023ED
:1057B00001E00133DBB2072B03D86A46D25C002A32
:1057C000F7D0082B02D1012003B000BD0248FBE74F
:1057D00004A00108240000200580000010B512F08C
:1057E0007BFD01001E4812F02BF91E4A2023D35CDA
:1057F000012B01D0052010BD137EDB0705D413005B
:1058000012685B68002B10D10CD0174B5B7E002B0D
:1058100023D0144A91689A00D3185A0091420BD2AF
:105820000220E8E7114B9A42EFD90E4A137E01217C
:105830000B4313760E48DEE712F04EFD01000D48D3
:1058400012F0CEF8074B00229A6020329B5C012BAD
:1058500001D00220CFE70848CDE70220CBE7C046C1
:10586000B49F010890240020E4250020E093040068
:1058700004800000C09F01080380000030B5B1B073
:10588000040012F029FD0100464812F0D9F8464BF9
:10589000D86846498A7E4B7E5A4393009B185A002B
:1058A000904224D9404B0022DA600025002C20D001
:1058B000012C34D0012200213E236B44202018709B
:1058C000C9B23A48C07A0024059407AC0494039303
:1058D0003F236B44029301900095062310A812F019
:1058E0006DFA07282FD88000314B1B589F460125A1
:1058F000DCE7304812F0A4F810AB00221A702B4AF3
:10590000D18B080A58709970126A110ED970110C57
:105910001971110A59719A7101220721CCE72648A1
:1059200012F08EF810AB01221A701F4AD28A110AA7
:1059300059709A701D4A517ED970127F1A710025D4
:1059400005220521B8E702202AE0174B00221A752C
:10595000022025E0144B00221A75022020E0002DC1
:1059600003D1114A137D013313750F4B1B7D062B99
:1059700001D8022014E00C4A20230221D154002136
:105980000E4811F05DFE02200AE0074A20230221A2
:10599000D1540021094811F053FE022000E00320F9
:1059A00031B030BDC89F010890240020E4250020BC
:1059B0001C9F0108D49F0108EC9F010804000020EF
:1059C00010B512F089FC01002C4812F039F82C4A6D
:1059D0002023D35C002B03D0022B29D0022010BD42
:1059E00012F078F8002801D00520F8E712F058F8F6
:1059F00001280CD0224C618C224812F021F8638CD3
:105A000001339BB26384142B09D80520E7E71C4BB4
:105A100020220121995400225A840130DFE71A48DC
:105A200012F00EF8164A20230221D1540520D6E7A1
:105A3000134B186915490A7F4B7E5A4393009B18F4
:105A40005A00904201D80520C9E7114811F0F8FF2B
:105A50000B4B00221A6112F023F8012805D0084AE6
:105A6000538C013353840220B9E7054B20220121D6
:105A7000995400225A840130B1E7C0463C9F010886
:105A800090240020489F01086C9F0108E425002015
:105A90008C9F01080D488546002103E00C4B5B58A4
:105AA000435004310B480C4B42189A42F6D30B4A30
:105AB00002E0002313600432094B9A42F9D3FFF746
:105AC000B3FC13F043FBFFF76FFBFEE70050002031
:105AD00060C10108000000203C02002040020020BC
